{
  "contractName": "ChainList",
  "abi": [
    {
      "anonymous": false,
      "inputs": [
        {
          "indexed": true,
          "internalType": "uint256",
          "name": "_id",
          "type": "uint256"
        },
        {
          "indexed": true,
          "internalType": "address",
          "name": "_seller",
          "type": "address"
        },
        {
          "indexed": true,
          "internalType": "address",
          "name": "_buyer",
          "type": "address"
        },
        {
          "indexed": false,
          "internalType": "string",
          "name": "_name",
          "type": "string"
        },
        {
          "indexed": false,
          "internalType": "uint256",
          "name": "_price",
          "type": "uint256"
        }
      ],
      "name": "LogBuyArticle",
      "type": "event"
    },
    {
      "anonymous": false,
      "inputs": [
        {
          "indexed": true,
          "internalType": "uint256",
          "name": "_id",
          "type": "uint256"
        },
        {
          "indexed": true,
          "internalType": "address",
          "name": "_seller",
          "type": "address"
        },
        {
          "indexed": false,
          "internalType": "string",
          "name": "_name",
          "type": "string"
        },
        {
          "indexed": false,
          "internalType": "uint256",
          "name": "_price",
          "type": "uint256"
        }
      ],
      "name": "LogSellArticle",
      "type": "event"
    },
    {
      "inputs": [
        {
          "internalType": "uint256",
          "name": "",
          "type": "uint256"
        }
      ],
      "name": "articles",
      "outputs": [
        {
          "internalType": "uint256",
          "name": "id",
          "type": "uint256"
        },
        {
          "internalType": "address",
          "name": "seller",
          "type": "address"
        },
        {
          "internalType": "address",
          "name": "buyer",
          "type": "address"
        },
        {
          "internalType": "string",
          "name": "name",
          "type": "string"
        },
        {
          "internalType": "string",
          "name": "description",
          "type": "string"
        },
        {
          "internalType": "uint256",
          "name": "price",
          "type": "uint256"
        }
      ],
      "stateMutability": "view",
      "type": "function",
      "constant": true
    },
    {
      "inputs": [
        {
          "internalType": "string",
          "name": "_name",
          "type": "string"
        },
        {
          "internalType": "string",
          "name": "_description",
          "type": "string"
        },
        {
          "internalType": "uint256",
          "name": "_price",
          "type": "uint256"
        }
      ],
      "name": "sellArticle",
      "outputs": [],
      "stateMutability": "nonpayable",
      "type": "function"
    },
    {
      "inputs": [],
      "name": "getNumberOfArticles",
      "outputs": [
        {
          "internalType": "uint256",
          "name": "_articleCounter",
          "type": "uint256"
        }
      ],
      "stateMutability": "view",
      "type": "function",
      "constant": true
    },
    {
      "inputs": [],
      "name": "getArticlesForSale",
      "outputs": [
        {
          "internalType": "uint256[]",
          "name": "_forSale",
          "type": "uint256[]"
        }
      ],
      "stateMutability": "view",
      "type": "function",
      "constant": true
    },
    {
      "inputs": [
        {
          "internalType": "uint256",
          "name": "_id",
          "type": "uint256"
        }
      ],
      "name": "buyArticle",
      "outputs": [],
      "stateMutability": "payable",
      "type": "function",
      "payable": true
    }
  ],
  "bytecode": "0x608060405234801561001057600080fd5b50336000806101000a81548173ffffffffffffffffffffffffffffffffffffffff021916908373ffffffffffffffffffffffffffffffffffffffff160217905550611027806100606000396000f3fe60806040526004361061004a5760003560e01c80631cc4baa81461004f5780637f6be3da1461006b57806389da85d314610096578063d2609515146100c1578063edcfafe6146100ea575b600080fd5b610069600480360381019061006491906109b6565b61012c565b005b34801561007757600080fd5b5061008061039f565b60405161008d9190610aa1565b60405180910390f35b3480156100a257600080fd5b506100ab610573565b6040516100b89190610ad2565b60405180910390f35b3480156100cd57600080fd5b506100e860048036038101906100e39190610c33565b61057d565b005b3480156100f657600080fd5b50610111600480360381019061010c91906109b6565b61073d565b60405161012396959493929190610d87565b60405180910390f35b60006002541161013b57600080fd5b60008111801561014d57506002548111155b61015657600080fd5b6000600160008381526020019081526020016000209050600073ffffffffffffffffffffffffffffffffffffffff168160020160009054906101000a900473ffffffffffffffffffffffffffffffffffffffff1673ffffffffffffffffffffffffffffffffffffffff16146101ca57600080fd5b8060010160009054906101000a900473ffffffffffffffffffffffffffffffffffffffff1673ffffffffffffffffffffffffffffffffffffffff163373ffffffffffffffffffffffffffffffffffffffff160361022657600080fd5b8060050154341461023657600080fd5b338160020160006101000a81548173ffffffffffffffffffffffffffffffffffffffff021916908373ffffffffffffffffffffffffffffffffffffffff1602179055508060010160009054906101000a900473ffffffffffffffffffffffffffffffffffffffff1673ffffffffffffffffffffffffffffffffffffffff166108fc349081150290604051600060405180830381858888f193505050501580156102e3573d6000803e3d6000fd5b508060020160009054906101000a900473ffffffffffffffffffffffffffffffffffffffff1673ffffffffffffffffffffffffffffffffffffffff168160010160009054906101000a900473ffffffffffffffffffffffffffffffffffffffff1673ffffffffffffffffffffffffffffffffffffffff16837f5d28bc06e6f0c45405abfe77bd77236c767f9bd9d044ae2d954a415a2b4823e0846003018560050154604051610393929190610eeb565b60405180910390a45050565b6060600060025467ffffffffffffffff8111156103bf576103be610b08565b5b6040519080825280602002602001820160405280156103ed5781602001602082028036833780820191505090505b509050600080600190505b60025481116104c357600073ffffffffffffffffffffffffffffffffffffffff166001600083815260200190815260200160002060020160009054906101000a900473ffffffffffffffffffffffffffffffffffffffff1673ffffffffffffffffffffffffffffffffffffffff16036104b057600160008281526020019081526020016000206000015483838151811061049557610494610f1b565b5b60200260200101818152505081806104ac90610f79565b9250505b80806104bb90610f79565b9150506103f8565b5060008167ffffffffffffffff8111156104e0576104df610b08565b5b60405190808252806020026020018201604052801561050e5781602001602082028036833780820191505090505b50905060005b828110156105695783818151811061052f5761052e610f1b565b5b602002602001015182828151811061054a57610549610f1b565b5b602002602001018181525050808061056190610f79565b915050610514565b5080935050505090565b6000600254905090565b6002600081548092919061059090610f79565b91905055506040518060c0016040528060025481526020013373ffffffffffffffffffffffffffffffffffffffff168152602001600073ffffffffffffffffffffffffffffffffffffffff168152602001848152602001838152602001828152506001600060025481526020019081526020016000206000820151816000015560208201518160010160006101000a81548173ffffffffffffffffffffffffffffffffffffffff021916908373ffffffffffffffffffffffffffffffffffffffff16021790555060408201518160020160006101000a81548173ffffffffffffffffffffffffffffffffffffffff021916908373ffffffffffffffffffffffffffffffffffffffff16021790555060608201518160030190805190602001906106ba9291906108c9565b5060808201518160040190805190602001906106d79291906108c9565b5060a082015181600501559050503373ffffffffffffffffffffffffffffffffffffffff166002547fe2ebb0c522a8b90a93f45a5dfd3c0e0516b81519fdf199efe51c474642fe8cec8584604051610730929190610fc1565b60405180910390a3505050565b60016020528060005260406000206000915090508060000154908060010160009054906101000a900473ffffffffffffffffffffffffffffffffffffffff16908060020160009054906101000a900473ffffffffffffffffffffffffffffffffffffffff16908060030180546107b290610e25565b80601f01602080910402602001604051908101604052809291908181526020018280546107de90610e25565b801561082b5780601f106108005761010080835404028352916020019161082b565b820191906000526020600020905b81548152906001019060200180831161080e57829003601f168201915b50505050509080600401805461084090610e25565b80601f016020809104026020016040519081016040528092919081815260200182805461086c90610e25565b80156108b95780601f1061088e576101008083540402835291602001916108b9565b820191906000526020600020905b81548152906001019060200180831161089c57829003601f168201915b5050505050908060050154905086565b8280546108d590610e25565b90600052602060002090601f0160209004810192826108f7576000855561093e565b82601f1061091057805160ff191683800117855561093e565b8280016001018555821561093e579182015b8281111561093d578251825591602001919060010190610922565b5b50905061094b919061094f565b5090565b5b80821115610968576000816000905550600101610950565b5090565b6000604051905090565b600080fd5b600080fd5b6000819050919050565b61099381610980565b811461099e57600080fd5b50565b6000813590506109b08161098a565b92915050565b6000602082840312156109cc576109cb610976565b5b60006109da848285016109a1565b91505092915050565b600081519050919050565b600082825260208201905092915050565b6000819050602082019050919050565b610a1881610980565b82525050565b6000610a2a8383610a0f565b60208301905092915050565b6000602082019050919050565b6000610a4e826109e3565b610a5881856109ee565b9350610a63836109ff565b8060005b83811015610a94578151610a7b8882610a1e565b9750610a8683610a36565b925050600181019050610a67565b5085935050505092915050565b60006020820190508181036000830152610abb8184610a43565b905092915050565b610acc81610980565b82525050565b6000602082019050610ae76000830184610ac3565b92915050565b600080fd5b600080fd5b6000601f19601f8301169050919050565b7f4e487b7100000000000000000000000000000000000000000000000000000000600052604160045260246000fd5b610b4082610af7565b810181811067ffffffffffffffff82111715610b5f57610b5e610b08565b5b80604052505050565b6000610b7261096c565b9050610b7e8282610b37565b919050565b600067ffffffffffffffff821115610b9e57610b9d610b08565b5b610ba782610af7565b9050602081019050919050565b82818337600083830152505050565b6000610bd6610bd184610b83565b610b68565b905082815260208101848484011115610bf257610bf1610af2565b5b610bfd848285610bb4565b509392505050565b600082601f830112610c1a57610c19610aed565b5b8135610c2a848260208601610bc3565b91505092915050565b600080600060608486031215610c4c57610c4b610976565b5b600084013567ffffffffffffffff811115610c6a57610c6961097b565b5b610c7686828701610c05565b935050602084013567ffffffffffffffff811115610c9757610c9661097b565b5b610ca386828701610c05565b9250506040610cb4868287016109a1565b9150509250925092565b600073ffffffffffffffffffffffffffffffffffffffff82169050919050565b6000610ce982610cbe565b9050919050565b610cf981610cde565b82525050565b600081519050919050565b600082825260208201905092915050565b60005b83811015610d39578082015181840152602081019050610d1e565b83811115610d48576000848401525b50505050565b6000610d5982610cff565b610d638185610d0a565b9350610d73818560208601610d1b565b610d7c81610af7565b840191505092915050565b600060c082019050610d9c6000830189610ac3565b610da96020830188610cf0565b610db66040830187610cf0565b8181036060830152610dc88186610d4e565b90508181036080830152610ddc8185610d4e565b9050610deb60a0830184610ac3565b979650505050505050565b7f4e487b7100000000000000000000000000000000000000000000000000000000600052602260045260246000fd5b60006002820490506001821680610e3d57607f821691505b602082108103610e5057610e4f610df6565b5b50919050565b60008190508160005260206000209050919050565b60008154610e7881610e25565b610e828186610d0a565b94506001821660008114610e9d5760018114610eaf57610ee2565b60ff1983168652602086019350610ee2565b610eb885610e56565b60005b83811015610eda57815481890152600182019150602081019050610ebb565b808801955050505b50505092915050565b60006040820190508181036000830152610f058185610e6b565b9050610f146020830184610ac3565b9392505050565b7f4e487b7100000000000000000000000000000000000000000000000000000000600052603260045260246000fd5b7f4e487b7100000000000000000000000000000000000000000000000000000000600052601160045260246000fd5b6000610f8482610980565b91507fffffffffffffffffffffffffffffffffffffffffffffffffffffffffffffffff8203610fb657610fb5610f4a565b5b600182019050919050565b60006040820190508181036000830152610fdb8185610d4e565b9050610fea6020830184610ac3565b939250505056fea2646970667358221220e07c4448be5436555d17e09ca9f492b2979ae5977a5b08460d1d6b075172e55764736f6c634300080d0033",
  "immutableReferences": {},
  "source": "// SPDX-License-Identifier: GPL-3.0\npragma solidity >=0.7.0 <0.9.0;\n\nimport \"./Ownable.sol\";\n\ncontract ChainList is Ownable {\n\n  // custom types\n  struct Article {\n    uint id;\n    address seller;\n    address buyer;\n    string name;\n    string description;\n    uint256 price;\n  }\n\n  // state variables\n  mapping (uint => Article) public articles;\n  uint articleCounter;\n\n  // events\n  event LogSellArticle(\n    uint indexed _id,\n    address indexed _seller,\n    string _name,\n    uint256 _price\n  );\n  event LogBuyArticle(\n    uint indexed _id,\n    address indexed _seller,\n    address indexed _buyer,\n    string _name,\n    uint256 _price\n  );\n\n  function sellArticle(string memory _name,string memory _description, uint _price) public {\n    // a new article\n    articleCounter++;\n\n    // store this article\n    articles[articleCounter] = Article(\n      articleCounter,\n      msg.sender,\n      address(0),\n      _name,\n      _description,\n      _price\n    );\n\n    emit LogSellArticle(articleCounter, msg.sender, _name, _price);\n  }\n\n  function getNumberOfArticles() public view returns (uint _articleCounter) {\n    return articleCounter;\n  }\n\n  // fetch and return all article IDs for articles still for sale\n  function getArticlesForSale() public view returns (uint[] memory _forSale) {\n    // prepare output array\n    uint[] memory articleIds = new uint[](articleCounter);\n\n    uint numberOfArticlesForSale = 0;\n    // iterate over articles\n    for(uint i = 1; i <= articleCounter;  i++) {\n      // keep the ID if the article is still for sale\n      if(articles[i].buyer == address(0)) {\n        articleIds[numberOfArticlesForSale] = articles[i].id;\n        numberOfArticlesForSale++;\n      }\n    }\n\n    // copy the articleIds array into a smaller forSale array\n    uint[] memory forSale = new uint[](numberOfArticlesForSale);\n    for(uint j = 0; j < numberOfArticlesForSale; j++) {\n      forSale[j] = articleIds[j];\n    }\n    return forSale;\n  }\n\n  // buy an article\n  function buyArticle(uint _id) payable public {\n    // we check whether there is an article for sale\n    require(articleCounter > 0);\n\n    // we check that the article exists\n    require(_id > 0 && _id <= articleCounter);\n\n    // we retrieve the article\n    Article storage article = articles[_id];\n\n    // we check that the article has not been sold yet\n    require(article.buyer == address(0));\n\n    // we don't allow the seller to buy his own article\n    require(msg.sender != article.seller);\n\n    // we check that the value sent corresponds to the price of the article\n    require(msg.value == article.price);\n\n    // keep buyer's information\n    article.buyer = msg.sender;\n\n    // the buyer can pay the seller\n    // you need to mark the article.seller as payable\n    // payable(article.seller).transfer(request.value);\n    payable(article.seller).transfer(msg.value);\n\n    // trigger the event\n    emit LogBuyArticle(_id, article.seller, article.buyer, article.name, article.price);\n  }\n}\n",
  "sourcePath": "/Users/mac/Documents/web3/projects/chainlist/contracts/ChainList.sol",
  "compiler": {
    "name": "solc",
    "version": "0.8.13+commit.abaa5c0e.Emscripten.clang"
  },
  "schemaVersion": "3.4.6",
  "updatedAt": "2022-04-30T13:28:18.909Z",
  "networkType": "ethereum",
  "devdoc": {
    "kind": "dev",
    "methods": {},
    "version": 1
  },
  "userdoc": {
    "kind": "user",
    "methods": {},
    "version": 1
  }
}